{
  "_format": "hh-sol-artifact-1",
  "contractName": "Erc20",
  "sourceName": "contracts/Erc20.sol",
  "abi": [
    {
      "inputs": [
        {
          "internalType": "string",
          "name": "name",
          "type": "string"
        },
        {
          "internalType": "string",
          "name": "symbol",
          "type": "string"
        },
        {
          "internalType": "uint256",
          "name": "totalSupply",
          "type": "uint256"
        },
        {
          "internalType": "address",
          "name": "_feeRecipient",
          "type": "address"
        },
        {
          "internalType": "address",
          "name": "initialOwner",
          "type": "address"
        }
      ],
      "stateMutability": "nonpayable",
      "type": "constructor"
    },
    {
      "inputs": [
        {
          "internalType": "address",
          "name": "spender",
          "type": "address"
        },
        {
          "internalType": "uint256",
          "name": "allowance",
          "type": "uint256"
        },
        {
          "internalType": "uint256",
          "name": "needed",
          "type": "uint256"
        }
      ],
      "name": "ERC20InsufficientAllowance",
      "type": "error"
    },
    {
      "inputs": [
        {
          "internalType": "address",
          "name": "sender",
          "type": "address"
        },
        {
          "internalType": "uint256",
          "name": "balance",
          "type": "uint256"
        },
        {
          "internalType": "uint256",
          "name": "needed",
          "type": "uint256"
        }
      ],
      "name": "ERC20InsufficientBalance",
      "type": "error"
    },
    {
      "inputs": [
        {
          "internalType": "address",
          "name": "approver",
          "type": "address"
        }
      ],
      "name": "ERC20InvalidApprover",
      "type": "error"
    },
    {
      "inputs": [
        {
          "internalType": "address",
          "name": "receiver",
          "type": "address"
        }
      ],
      "name": "ERC20InvalidReceiver",
      "type": "error"
    },
    {
      "inputs": [
        {
          "internalType": "address",
          "name": "sender",
          "type": "address"
        }
      ],
      "name": "ERC20InvalidSender",
      "type": "error"
    },
    {
      "inputs": [
        {
          "internalType": "address",
          "name": "spender",
          "type": "address"
        }
      ],
      "name": "ERC20InvalidSpender",
      "type": "error"
    },
    {
      "inputs": [
        {
          "internalType": "address",
          "name": "owner",
          "type": "address"
        }
      ],
      "name": "OwnableInvalidOwner",
      "type": "error"
    },
    {
      "inputs": [
        {
          "internalType": "address",
          "name": "account",
          "type": "address"
        }
      ],
      "name": "OwnableUnauthorizedAccount",
      "type": "error"
    },
    {
      "anonymous": false,
      "inputs": [
        {
          "indexed": true,
          "internalType": "address",
          "name": "owner",
          "type": "address"
        },
        {
          "indexed": true,
          "internalType": "address",
          "name": "spender",
          "type": "address"
        },
        {
          "indexed": false,
          "internalType": "uint256",
          "name": "value",
          "type": "uint256"
        }
      ],
      "name": "Approval",
      "type": "event"
    },
    {
      "anonymous": false,
      "inputs": [
        {
          "indexed": true,
          "internalType": "address",
          "name": "from",
          "type": "address"
        },
        {
          "indexed": true,
          "internalType": "address",
          "name": "to",
          "type": "address"
        },
        {
          "indexed": false,
          "internalType": "uint256",
          "name": "amount",
          "type": "uint256"
        }
      ],
      "name": "FeeCollected",
      "type": "event"
    },
    {
      "anonymous": false,
      "inputs": [
        {
          "indexed": true,
          "internalType": "address",
          "name": "oldFeeRecipient",
          "type": "address"
        },
        {
          "indexed": true,
          "internalType": "address",
          "name": "newFeeRecipient",
          "type": "address"
        }
      ],
      "name": "FeeRecipient",
      "type": "event"
    },
    {
      "anonymous": false,
      "inputs": [
        {
          "indexed": true,
          "internalType": "address",
          "name": "previousOwner",
          "type": "address"
        },
        {
          "indexed": true,
          "internalType": "address",
          "name": "newOwner",
          "type": "address"
        }
      ],
      "name": "OwnershipTransferred",
      "type": "event"
    },
    {
      "anonymous": false,
      "inputs": [
        {
          "indexed": true,
          "internalType": "address",
          "name": "from",
          "type": "address"
        },
        {
          "indexed": true,
          "internalType": "address",
          "name": "to",
          "type": "address"
        },
        {
          "indexed": false,
          "internalType": "uint256",
          "name": "value",
          "type": "uint256"
        }
      ],
      "name": "Transfer",
      "type": "event"
    },
    {
      "inputs": [
        {
          "internalType": "address",
          "name": "owner",
          "type": "address"
        },
        {
          "internalType": "address",
          "name": "spender",
          "type": "address"
        }
      ],
      "name": "allowance",
      "outputs": [
        {
          "internalType": "uint256",
          "name": "",
          "type": "uint256"
        }
      ],
      "stateMutability": "view",
      "type": "function"
    },
    {
      "inputs": [
        {
          "internalType": "address",
          "name": "spender",
          "type": "address"
        },
        {
          "internalType": "uint256",
          "name": "value",
          "type": "uint256"
        }
      ],
      "name": "approve",
      "outputs": [
        {
          "internalType": "bool",
          "name": "",
          "type": "bool"
        }
      ],
      "stateMutability": "nonpayable",
      "type": "function"
    },
    {
      "inputs": [
        {
          "internalType": "address",
          "name": "account",
          "type": "address"
        }
      ],
      "name": "balanceOf",
      "outputs": [
        {
          "internalType": "uint256",
          "name": "",
          "type": "uint256"
        }
      ],
      "stateMutability": "view",
      "type": "function"
    },
    {
      "inputs": [],
      "name": "decimals",
      "outputs": [
        {
          "internalType": "uint8",
          "name": "",
          "type": "uint8"
        }
      ],
      "stateMutability": "view",
      "type": "function"
    },
    {
      "inputs": [],
      "name": "feeRecipient",
      "outputs": [
        {
          "internalType": "address",
          "name": "",
          "type": "address"
        }
      ],
      "stateMutability": "view",
      "type": "function"
    },
    {
      "inputs": [],
      "name": "name",
      "outputs": [
        {
          "internalType": "string",
          "name": "",
          "type": "string"
        }
      ],
      "stateMutability": "view",
      "type": "function"
    },
    {
      "inputs": [],
      "name": "owner",
      "outputs": [
        {
          "internalType": "address",
          "name": "",
          "type": "address"
        }
      ],
      "stateMutability": "view",
      "type": "function"
    },
    {
      "inputs": [],
      "name": "renounceOwnership",
      "outputs": [],
      "stateMutability": "nonpayable",
      "type": "function"
    },
    {
      "inputs": [],
      "name": "symbol",
      "outputs": [
        {
          "internalType": "string",
          "name": "",
          "type": "string"
        }
      ],
      "stateMutability": "view",
      "type": "function"
    },
    {
      "inputs": [],
      "name": "totalSupply",
      "outputs": [
        {
          "internalType": "uint256",
          "name": "",
          "type": "uint256"
        }
      ],
      "stateMutability": "view",
      "type": "function"
    },
    {
      "inputs": [
        {
          "internalType": "address",
          "name": "to",
          "type": "address"
        },
        {
          "internalType": "uint256",
          "name": "amount",
          "type": "uint256"
        }
      ],
      "name": "transfer",
      "outputs": [
        {
          "internalType": "bool",
          "name": "",
          "type": "bool"
        }
      ],
      "stateMutability": "nonpayable",
      "type": "function"
    },
    {
      "inputs": [
        {
          "internalType": "address",
          "name": "from",
          "type": "address"
        },
        {
          "internalType": "address",
          "name": "to",
          "type": "address"
        },
        {
          "internalType": "uint256",
          "name": "amount",
          "type": "uint256"
        }
      ],
      "name": "transferFrom",
      "outputs": [
        {
          "internalType": "bool",
          "name": "",
          "type": "bool"
        }
      ],
      "stateMutability": "nonpayable",
      "type": "function"
    },
    {
      "inputs": [
        {
          "internalType": "address",
          "name": "newOwner",
          "type": "address"
        }
      ],
      "name": "transferOwnership",
      "outputs": [],
      "stateMutability": "nonpayable",
      "type": "function"
    },
    {
      "inputs": [
        {
          "internalType": "address",
          "name": "newFeeRecipient",
          "type": "address"
        }
      ],
      "name": "updateFeeRecipient",
      "outputs": [],
      "stateMutability": "nonpayable",
      "type": "function"
    }
  ],
  "bytecode": "0x60806040523480156200001157600080fd5b50604051620012eb380380620012eb8339810160408190526200003491620003ef565b808585600362000045838262000517565b50600462000054828262000517565b5050506001600160a01b0381166200008757604051631e4fbdf760e01b8152600060048201526024015b60405180910390fd5b62000092816200014a565b506001600160a01b038216620000f75760405162461bcd60e51b8152602060048201526024808201527f46656520726563697069656e742063616e6e6f74206265207a65726f206164646044820152637265737360e01b60648201526084016200007e565b600680546001600160a01b0319166001600160a01b0384161790556200013f3362000120601290565b6200012d90600a620006f8565b62000139908662000710565b6200019c565b505050505062000740565b600580546001600160a01b038381166001600160a01b0319831681179093556040519116919082907f8be0079c531659141344cd1fd0a4f28419497f9722a3daafe3b4186f6b6457e090600090a35050565b6001600160a01b038216620001c85760405163ec442f0560e01b8152600060048201526024016200007e565b620001d660008383620001da565b5050565b6001600160a01b03831662000209578060026000828254620001fd91906200072a565b909155506200027d9050565b6001600160a01b038316600090815260208190526040902054818110156200025e5760405163391434e360e21b81526001600160a01b038516600482015260248101829052604481018390526064016200007e565b6001600160a01b03841660009081526020819052604090209082900390555b6001600160a01b0382166200029b57600280548290039055620002ba565b6001600160a01b03821660009081526020819052604090208054820190555b816001600160a01b0316836001600160a01b03167fddf252ad1be2c89b69c2b068fc378daa952ba7f163c4a11628f55a4df523b3ef836040516200030091815260200190565b60405180910390a3505050565b634e487b7160e01b600052604160045260246000fd5b600082601f8301126200033557600080fd5b81516001600160401b03808211156200035257620003526200030d565b604051601f8301601f19908116603f011681019082821181831017156200037d576200037d6200030d565b816040528381526020925086838588010111156200039a57600080fd5b600091505b83821015620003be57858201830151818301840152908201906200039f565b600093810190920192909252949350505050565b80516001600160a01b0381168114620003ea57600080fd5b919050565b600080600080600060a086880312156200040857600080fd5b85516001600160401b03808211156200042057600080fd5b6200042e89838a0162000323565b965060208801519150808211156200044557600080fd5b50620004548882890162000323565b945050604086015192506200046c60608701620003d2565b91506200047c60808701620003d2565b90509295509295909350565b600181811c908216806200049d57607f821691505b602082108103620004be57634e487b7160e01b600052602260045260246000fd5b50919050565b601f8211156200051257600081815260208120601f850160051c81016020861015620004ed5750805b601f850160051c820191505b818110156200050e57828155600101620004f9565b5050505b505050565b81516001600160401b038111156200053357620005336200030d565b6200054b8162000544845462000488565b84620004c4565b602080601f8311600181146200058357600084156200056a5750858301515b600019600386901b1c1916600185901b1785556200050e565b600085815260208120601f198616915b82811015620005b45788860151825594840194600190910190840162000593565b5085821015620005d35787850151600019600388901b60f8161c191681555b5050505050600190811b01905550565b634e487b7160e01b600052601160045260246000fd5b600181815b808511156200063a5781600019048211156200061e576200061e620005e3565b808516156200062c57918102915b93841c9390800290620005fe565b509250929050565b6000826200065357506001620006f2565b816200066257506000620006f2565b81600181146200067b57600281146200068657620006a6565b6001915050620006f2565b60ff8411156200069a576200069a620005e3565b50506001821b620006f2565b5060208310610133831016604e8410600b8410161715620006cb575081810a620006f2565b620006d78383620005f9565b8060001904821115620006ee57620006ee620005e3565b0290505b92915050565b60006200070960ff84168362000642565b9392505050565b8082028115828204841417620006f257620006f2620005e3565b80820180821115620006f257620006f2620005e3565b610b9b80620007506000396000f3fe608060405234801561001057600080fd5b50600436106100ea5760003560e01c8063715018a61161008c578063a9059cbb11610066578063a9059cbb146101db578063dd62ed3e146101ee578063f160d36914610227578063f2fde38b1461023a57600080fd5b8063715018a6146101b85780638da5cb5b146101c257806395d89b41146101d357600080fd5b806323b872dd116100c857806323b872dd14610142578063313ce56714610155578063469048401461016457806370a082311461018f57600080fd5b806306fdde03146100ef578063095ea7b31461010d57806318160ddd14610130575b600080fd5b6100f761024d565b60405161010491906109a8565b60405180910390f35b61012061011b366004610a12565b6102df565b6040519015158152602001610104565b6002545b604051908152602001610104565b610120610150366004610a3c565b6102f9565b60405160128152602001610104565b600654610177906001600160a01b031681565b6040516001600160a01b039091168152602001610104565b61013461019d366004610a78565b6001600160a01b031660009081526020819052604090205490565b6101c061031d565b005b6005546001600160a01b0316610177565b6100f7610331565b6101206101e9366004610a12565b610340565b6101346101fc366004610a9a565b6001600160a01b03918216600090815260016020908152604080832093909416825291909152205490565b6101c0610235366004610a78565b61034e565b6101c0610248366004610a78565b610420565b60606003805461025c90610acd565b80601f016020809104026020016040519081016040528092919081815260200182805461028890610acd565b80156102d55780601f106102aa576101008083540402835291602001916102d5565b820191906000526020600020905b8154815290600101906020018083116102b857829003601f168201915b5050505050905090565b6000336102ed81858561045e565b60019150505b92915050565b600033610307858285610470565b6103128585856104ef565b506001949350505050565b6103256106d0565b61032f60006106fd565b565b60606004805461025c90610acd565b6000336102ed8185856104ef565b6103566106d0565b6001600160a01b0381166103ce5760405162461bcd60e51b815260206004820152603460248201527f546865206e6577207570646174656420726563697069656e742073686f756c64604482015273206e6f74206265207a65726f206164647265737360601b60648201526084015b60405180910390fd5b600680546001600160a01b038381166001600160a01b0319831681179093556040519116919082907fa3c35be2df207ef65dd1fa9d8feba470160e2a6d259f30f2ed070c69b7ec457690600090a35050565b6104286106d0565b6001600160a01b03811661045257604051631e4fbdf760e01b8152600060048201526024016103c5565b61045b816106fd565b50565b61046b838383600161074f565b505050565b6001600160a01b038381166000908152600160209081526040808320938616835292905220546000198110156104e957818110156104da57604051637dc7a0d960e11b81526001600160a01b038416600482015260248101829052604481018390526064016103c5565b6104e98484848403600061074f565b50505050565b6001600160a01b03831661055e5760405162461bcd60e51b815260206004820152603060248201527f5472616e736665722066726f6d20616464726573732073686f756c64206e6f7460448201526f206265207a65726f206164647265737360801b60648201526084016103c5565b6001600160a01b0382166105cb5760405162461bcd60e51b815260206004820152602e60248201527f5472616e7366657220746f20616464726573732073686f756c64206e6f74206260448201526d65207a65726f206164647265737360901b60648201526084016103c5565b6001600160a01b038316600090815260208190526040902054818110156106345760405162461bcd60e51b815260206004820152601f60248201527f5472616e7366657220616d6f756e7420657863656564732062616c616e63650060448201526064016103c5565b6000610641606484610b1d565b9050600061064f8285610b3f565b905061065c868683610824565b81156106c85760065461067a9087906001600160a01b031684610824565b846001600160a01b0316866001600160a01b03167ff228de527fc1b9843baac03b9a04565473a263375950e63435d4138464386f46846040516106bf91815260200190565b60405180910390a35b505050505050565b6005546001600160a01b0316331461032f5760405163118cdaa760e01b81523360048201526024016103c5565b600580546001600160a01b038381166001600160a01b0319831681179093556040519116919082907f8be0079c531659141344cd1fd0a4f28419497f9722a3daafe3b4186f6b6457e090600090a35050565b6001600160a01b0384166107795760405163e602df0560e01b8152600060048201526024016103c5565b6001600160a01b0383166107a357604051634a1406b160e11b8152600060048201526024016103c5565b6001600160a01b03808516600090815260016020908152604080832093871683529290522082905580156104e957826001600160a01b0316846001600160a01b03167f8c5be1e5ebec7d5bd14f71427d1e84f3dd0314c0f7b2291e5b200ac8c7c3b9258460405161081691815260200190565b60405180910390a350505050565b6001600160a01b03831661084e57604051634b637e8f60e11b8152600060048201526024016103c5565b6001600160a01b0382166108785760405163ec442f0560e01b8152600060048201526024016103c5565b61046b8383836001600160a01b0383166108a957806002600082825461089e9190610b52565b9091555061091b9050565b6001600160a01b038316600090815260208190526040902054818110156108fc5760405163391434e360e21b81526001600160a01b038516600482015260248101829052604481018390526064016103c5565b6001600160a01b03841660009081526020819052604090209082900390555b6001600160a01b03821661093757600280548290039055610956565b6001600160a01b03821660009081526020819052604090208054820190555b816001600160a01b0316836001600160a01b03167fddf252ad1be2c89b69c2b068fc378daa952ba7f163c4a11628f55a4df523b3ef8360405161099b91815260200190565b60405180910390a3505050565b600060208083528351808285015260005b818110156109d5578581018301518582016040015282016109b9565b506000604082860101526040601f19601f8301168501019250505092915050565b80356001600160a01b0381168114610a0d57600080fd5b919050565b60008060408385031215610a2557600080fd5b610a2e836109f6565b946020939093013593505050565b600080600060608486031215610a5157600080fd5b610a5a846109f6565b9250610a68602085016109f6565b9150604084013590509250925092565b600060208284031215610a8a57600080fd5b610a93826109f6565b9392505050565b60008060408385031215610aad57600080fd5b610ab6836109f6565b9150610ac4602084016109f6565b90509250929050565b600181811c90821680610ae157607f821691505b602082108103610b0157634e487b7160e01b600052602260045260246000fd5b50919050565b634e487b7160e01b600052601160045260246000fd5b600082610b3a57634e487b7160e01b600052601260045260246000fd5b500490565b818103818111156102f3576102f3610b07565b808201808211156102f3576102f3610b0756fea2646970667358221220f0e0bf2f3a026972f3e18721fa54e07e533667e6e9b8be9b67b1fc94f0d1544264736f6c63430008140033",
  "linkReferences": {},
  "deployedLinkReferences": {}
}